:100000000C9434000C9451000C9451000C94510049
:100010000C9451000C9451000C9451000C9451001C
:100020000C9451000C9451000C9451000C9451000C
:100030000C9451000C9451000C9451000C945100FC
:100040000C9451000C9451000C9451000C945100EC
:100050000C9451000C9451000C9451000C945100DC
:100060000C9451000C94510011241FBECFEFD4E02A
:10007000DEBFCDBF11E0A0E0B1E0E6E1F1E002C0FB
:1000800005900D92A030B107D9F711E0A0E0B1E0E2
:1000900001C01D92A132B107E1F70E9476000C94D5
:1000A00089000C94000080E284B9089585B190E045
:1000B00025E0969587952A95E1F781700895882324
:1000C00011F02D9A08952D98089585B190E035E0AE
:1000D000969587953A95E1F7982F917080FD02C02B
:1000E0002D9A01C02D9881E08927089580E284B976
:1000F0001092200120E931E02D9902C02D9A01C013
:100100002D9880ED97E0F9013197F1F70197A1F370
:06011000FACFF894FFCFC6
:00000001FF
